{
  "contractName": "BakeryFlashswap",
  "abi": [
    {
      "inputs": [
        {
          "internalType": "address",
          "name": "WETH_",
          "type": "address"
        },
        {
          "internalType": "address",
          "name": "UNISWAP_FACTORY_",
          "type": "address"
        }
      ],
      "stateMutability": "nonpayable",
      "type": "constructor"
    },
    {
      "anonymous": false,
      "inputs": [
        {
          "indexed": false,
          "internalType": "string",
          "name": "message",
          "type": "string"
        },
        {
          "indexed": false,
          "internalType": "uint256",
          "name": "val",
          "type": "uint256"
        }
      ],
      "name": "log",
      "type": "event"
    },
    {
      "inputs": [
        {
          "internalType": "address",
          "name": "_tokenBorrow",
          "type": "address"
        }
      ],
      "name": "getTokenPair",
      "outputs": [
        {
          "internalType": "address",
          "name": "",
          "type": "address"
        }
      ],
      "stateMutability": "view",
      "type": "function"
    },
    {
      "inputs": [
        {
          "internalType": "address",
          "name": "_tokenBorrow",
          "type": "address"
        }
      ],
      "name": "setTokenBorrow",
      "outputs": [
        {
          "internalType": "address",
          "name": "",
          "type": "address"
        }
      ],
      "stateMutability": "nonpayable",
      "type": "function"
    },
    {
      "inputs": [
        {
          "internalType": "address",
          "name": "_tokenBorrow",
          "type": "address"
        },
        {
          "internalType": "address",
          "name": "to",
          "type": "address"
        },
        {
          "internalType": "uint256",
          "name": "amount",
          "type": "uint256"
        }
      ],
      "name": "initFlashloan",
      "outputs": [],
      "stateMutability": "nonpayable",
      "type": "function"
    },
    {
      "inputs": [
        {
          "internalType": "address",
          "name": "_sender",
          "type": "address"
        },
        {
          "internalType": "uint256",
          "name": "_amount0",
          "type": "uint256"
        },
        {
          "internalType": "uint256",
          "name": "_amount1",
          "type": "uint256"
        },
        {
          "internalType": "bytes",
          "name": "_data",
          "type": "bytes"
        }
      ],
      "name": "uniswapV2Call",
      "outputs": [],
      "stateMutability": "nonpayable",
      "type": "function"
    }
  ],
  "bytecode": "0x60c06040527310ed43c718714eb63d5aa57b78b54704e256024e6000806101000a81548173ffffffffffffffffffffffffffffffffffffffff021916908373ffffffffffffffffffffffffffffffffffffffff1602179055503480156200006557600080fd5b5060405162001d1b38038062001d1b83398181016040528101906200008b919062000118565b8173ffffffffffffffffffffffffffffffffffffffff1660808173ffffffffffffffffffffffffffffffffffffffff1660601b815250508073ffffffffffffffffffffffffffffffffffffffff1660a08173ffffffffffffffffffffffffffffffffffffffff1660601b815250505050620001b2565b600081519050620001128162000198565b92915050565b6000806040838503121562000132576200013162000193565b5b6000620001428582860162000101565b9250506020620001558582860162000101565b9150509250929050565b60006200016c8262000173565b9050919050565b600073ffffffffffffffffffffffffffffffffffffffff82169050919050565b600080fd5b620001a3816200015f565b8114620001af57600080fd5b50565b60805160601c60a05160601c611b1a620002016000396000818161023f01528181610a590152610e2b01526000818161049a0152818161099901528181610a960152610e680152611b1a6000f3fe608060405234801561001057600080fd5b506004361061004c5760003560e01c806310d1e85c1461005157806326f39d2f1461006d5780637b58e4cf14610089578063b1aecc8e146100b9575b600080fd5b61006b600480360381019061006691906110bc565b6100e9565b005b61008760048036038101906100829190611069565b610a55565b005b6100a3600480360381019061009e9190610fcf565b610dba565b6040516100b091906113c4565b60405180910390f35b6100d360048036038101906100ce9190610fcf565b610e27565b6040516100e091906113c4565b60405180910390f35b6000600267ffffffffffffffff811115610106576101056118be565b5b6040519080825280602002602001820160405280156101345781602001602082028036833780820191505090505b50905060003373ffffffffffffffffffffffffffffffffffffffff16630dfe16816040518163ffffffff1660e01b815260040160206040518083038186803b15801561017f57600080fd5b505afa158015610193573d6000803e3d6000fd5b505050506040513d601f19601f820116820180604052508101906101b79190610ffc565b905060003373ffffffffffffffffffffffffffffffffffffffff1663d21220a76040518163ffffffff1660e01b815260040160206040518083038186803b15801561020157600080fd5b505afa158015610215573d6000803e3d6000fd5b505050506040513d601f19601f820116820180604052508101906102399190610ffc565b905060007f000000000000000000000000000000000000000000000000000000000000000073ffffffffffffffffffffffffffffffffffffffff1663e6a4390584846040518363ffffffff1660e01b81526004016102989291906113df565b60206040518083038186803b1580156102b057600080fd5b505afa1580156102c4573d6000803e3d6000fd5b505050506040513d601f19601f820116820180604052508101906102e89190610ffc565b90508073ffffffffffffffffffffffffffffffffffffffff163373ffffffffffffffffffffffffffffffffffffffff1614610358576040517f08c379a000000000000000000000000000000000000000000000000000000000815260040161034f90611451565b60405180910390fd5b3073ffffffffffffffffffffffffffffffffffffffff168973ffffffffffffffffffffffffffffffffffffffff16146103c6576040517f08c379a00000000000000000000000000000000000000000000000000000000081526004016103bd90611431565b60405180910390fd5b60008087878101906103d89190611029565b9150915060008a146103ea57846103ec565b835b86600081518110610400576103ff61188f565b5b602002602001019073ffffffffffffffffffffffffffffffffffffffff16908173ffffffffffffffffffffffffffffffffffffffff168152505060008a14610448578361044a565b845b8660018151811061045e5761045d61188f565b5b602002602001019073ffffffffffffffffffffffffffffffffffffffff16908173ffffffffffffffffffffffffffffffffffffffff16815250507f000000000000000000000000000000000000000000000000000000000000000073ffffffffffffffffffffffffffffffffffffffff1663095ea7b360008054906101000a900473ffffffffffffffffffffffffffffffffffffffff168c6040518363ffffffff1660e01b8152600401610513929190611408565b602060405180830381600087803b15801561052d57600080fd5b505af1158015610541573d6000803e3d6000fd5b505050506040513d601f19601f820116820180604052508101906105659190611144565b5060008054906101000a900473ffffffffffffffffffffffffffffffffffffffff1673ffffffffffffffffffffffffffffffffffffffff16635c11d7958b60008930620d2f006040518663ffffffff1660e01b81526004016105cb9594939291906115a5565b600060405180830381600087803b1580156105e557600080fd5b505af11580156105f9573d6000803e3d6000fd5b505050506000600160009054906101000a900473ffffffffffffffffffffffffffffffffffffffff1673ffffffffffffffffffffffffffffffffffffffff166370a08231306040518263ffffffff1660e01b815260040161065a91906113c4565b60206040518083038186803b15801561067257600080fd5b505afa158015610686573d6000803e3d6000fd5b505050506040513d601f19601f820116820180604052508101906106aa9190611171565b90507fb60e72ccf6d57ab53eb84d7e94a9545806ed7f93c4d5673f11a64f03471e584e816040516106db9190611471565b60405180910390a1600160009054906101000a900473ffffffffffffffffffffffffffffffffffffffff1673ffffffffffffffffffffffffffffffffffffffff1663095ea7b360008054906101000a900473ffffffffffffffffffffffffffffffffffffffff16836040518363ffffffff1660e01b8152600401610760929190611408565b602060405180830381600087803b15801561077a57600080fd5b505af115801561078e573d6000803e3d6000fd5b505050506040513d601f19601f820116820180604052508101906107b29190611144565b5060008054906101000a900473ffffffffffffffffffffffffffffffffffffffff1673ffffffffffffffffffffffffffffffffffffffff16635c11d7958260008a30620d2f006040518663ffffffff1660e01b81526004016108189594939291906115a5565b600060405180830381600087803b15801561083257600080fd5b505af1158015610846573d6000803e3d6000fd5b50505050600060016103e560038561085e9190611738565b6108689190611707565b61087291906116b1565b90506000818461088291906116b1565b90507fb60e72ccf6d57ab53eb84d7e94a9545806ed7f93c4d5673f11a64f03471e584e846040516108b391906114cd565b60405180910390a17fb60e72ccf6d57ab53eb84d7e94a9545806ed7f93c4d5673f11a64f03471e584e8d6040516108ea9190611557565b60405180910390a17fb60e72ccf6d57ab53eb84d7e94a9545806ed7f93c4d5673f11a64f03471e584e8c6040516109219190611529565b60405180910390a17fb60e72ccf6d57ab53eb84d7e94a9545806ed7f93c4d5673f11a64f03471e584e8260405161095891906114fb565b60405180910390a17fb60e72ccf6d57ab53eb84d7e94a9545806ed7f93c4d5673f11a64f03471e584e8160405161098f919061149f565b60405180910390a17f000000000000000000000000000000000000000000000000000000000000000073ffffffffffffffffffffffffffffffffffffffff1663a9059cbb87836040518363ffffffff1660e01b81526004016109f2929190611408565b602060405180830381600087803b158015610a0c57600080fd5b505af1158015610a20573d6000803e3d6000fd5b505050506040513d601f19601f82011682018060405250810190610a449190611144565b505050505050505050505050505050565b60007f000000000000000000000000000000000000000000000000000000000000000073ffffffffffffffffffffffffffffffffffffffff1663e6a43905857f00000000000000000000000000000000000000000000000000000000000000006040518363ffffffff1660e01b8152600401610ad29291906113df565b60206040518083038186803b158015610aea57600080fd5b505afa158015610afe573d6000803e3d6000fd5b505050506040513d601f19601f82011682018060405250810190610b229190610ffc565b9050600073ffffffffffffffffffffffffffffffffffffffff168173ffffffffffffffffffffffffffffffffffffffff161415610b94576040517f08c379a0000000000000000000000000000000000000000000000000000000008152600401610b8b90611585565b60405180910390fd5b60008173ffffffffffffffffffffffffffffffffffffffff16630dfe16816040518163ffffffff1660e01b815260040160206040518083038186803b158015610bdc57600080fd5b505afa158015610bf0573d6000803e3d6000fd5b505050506040513d601f19601f82011682018060405250810190610c149190610ffc565b905060008273ffffffffffffffffffffffffffffffffffffffff1663d21220a76040518163ffffffff1660e01b815260040160206040518083038186803b158015610c5e57600080fd5b505afa158015610c72573d6000803e3d6000fd5b505050506040513d601f19601f82011682018060405250810190610c969190610ffc565b905060008273ffffffffffffffffffffffffffffffffffffffff168773ffffffffffffffffffffffffffffffffffffffff1614610cd35784610cd6565b60005b905060008273ffffffffffffffffffffffffffffffffffffffff168873ffffffffffffffffffffffffffffffffffffffff1614610d135785610d16565b60005b905060008887604051602001610d2d929190611408565b60405160208183030381529060405290508573ffffffffffffffffffffffffffffffffffffffff1663022c0d9f84848b856040518563ffffffff1660e01b8152600401610d7d94939291906115ff565b600060405180830381600087803b158015610d9757600080fd5b505af1158015610dab573d6000803e3d6000fd5b50505050505050505050505050565b600081600160006101000a81548173ffffffffffffffffffffffffffffffffffffffff021916908373ffffffffffffffffffffffffffffffffffffffff160217905550600160009054906101000a900473ffffffffffffffffffffffffffffffffffffffff169050919050565b60007f000000000000000000000000000000000000000000000000000000000000000073ffffffffffffffffffffffffffffffffffffffff1663e6a43905837f00000000000000000000000000000000000000000000000000000000000000006040518363ffffffff1660e01b8152600401610ea49291906113df565b60206040518083038186803b158015610ebc57600080fd5b505afa158015610ed0573d6000803e3d6000fd5b505050506040513d601f19601f82011682018060405250810190610ef49190610ffc565b9050919050565b600081359050610f0a81611a88565b92915050565b600081519050610f1f81611a88565b92915050565b600081359050610f3481611a9f565b92915050565b600081519050610f4981611ab6565b92915050565b60008083601f840112610f6557610f646118f2565b5b8235905067ffffffffffffffff811115610f8257610f816118ed565b5b602083019150836001820283011115610f9e57610f9d6118f7565b5b9250929050565b600081359050610fb481611acd565b92915050565b600081519050610fc981611acd565b92915050565b600060208284031215610fe557610fe4611901565b5b6000610ff384828501610efb565b91505092915050565b60006020828403121561101257611011611901565b5b600061102084828501610f10565b91505092915050565b600080604083850312156110405761103f611901565b5b600061104e85828601610f25565b925050602061105f85828601610fa5565b9150509250929050565b60008060006060848603121561108257611081611901565b5b600061109086828701610efb565b93505060206110a186828701610efb565b92505060406110b286828701610fa5565b9150509250925092565b6000806000806000608086880312156110d8576110d7611901565b5b60006110e688828901610efb565b95505060206110f788828901610fa5565b945050604061110888828901610fa5565b935050606086013567ffffffffffffffff811115611129576111286118fc565b5b61113588828901610f4f565b92509250509295509295909350565b60006020828403121561115a57611159611901565b5b600061116884828501610f3a565b91505092915050565b60006020828403121561118757611186611901565b5b600061119584828501610fba565b91505092915050565b60006111aa83836111b6565b60208301905092915050565b6111bf81611792565b82525050565b6111ce81611792565b82525050565b60006111df8261165b565b6111e9818561167e565b93506111f48361164b565b8060005b8381101561122557815161120c888261119e565b975061121783611671565b9250506001810190506111f8565b5085935050505092915050565b600061123d82611666565b611247818561168f565b93506112578185602086016117fe565b61126081611906565b840191505092915050565b611274816117ec565b82525050565b6000611287600a836116a0565b915061129282611917565b602082019050919050565b60006112aa6016836116a0565b91506112b582611940565b602082019050919050565b60006112cd600c836116a0565b91506112d882611969565b602082019050919050565b60006112f0600c836116a0565b91506112fb82611992565b602082019050919050565b60006113136006836116a0565b915061131e826119bb565b602082019050919050565b60006113366003836116a0565b9150611341826119e4565b602082019050919050565b60006113596007836116a0565b915061136482611a0d565b602082019050919050565b600061137c6007836116a0565b915061138782611a36565b602082019050919050565b600061139f6010836116a0565b91506113aa82611a5f565b602082019050919050565b6113be816117e2565b82525050565b60006020820190506113d960008301846111c5565b92915050565b60006040820190506113f460008301856111c5565b61140160208301846111c5565b9392505050565b600060408201905061141d60008301856111c5565b61142a60208301846113b5565b9392505050565b6000602082019050818103600083015261144a8161127a565b9050919050565b6000602082019050818103600083015261146a8161129d565b9050919050565b6000604082019050818103600083015261148a816112c0565b905061149960208301846113b5565b92915050565b600060408201905081810360008301526114b8816112e3565b90506114c760208301846113b5565b92915050565b600060408201905081810360008301526114e681611306565b90506114f560208301846113b5565b92915050565b6000604082019050818103600083015261151481611329565b905061152360208301846113b5565b92915050565b600060408201905081810360008301526115428161134c565b905061155160208301846113b5565b92915050565b600060408201905081810360008301526115708161136f565b905061157f60208301846113b5565b92915050565b6000602082019050818103600083015261159e81611392565b9050919050565b600060a0820190506115ba60008301886113b5565b6115c7602083018761126b565b81810360408301526115d981866111d4565b90506115e860608301856111c5565b6115f560808301846113b5565b9695505050505050565b600060808201905061161460008301876113b5565b61162160208301866113b5565b61162e60408301856111c5565b81810360608301526116408184611232565b905095945050505050565b6000819050602082019050919050565b600081519050919050565b600081519050919050565b6000602082019050919050565b600082825260208201905092915050565b600082825260208201905092915050565b600082825260208201905092915050565b60006116bc826117e2565b91506116c7836117e2565b9250827fffffffffffffffffffffffffffffffffffffffffffffffffffffffffffffffff038211156116fc576116fb611831565b5b828201905092915050565b6000611712826117e2565b915061171d836117e2565b92508261172d5761172c611860565b5b828204905092915050565b6000611743826117e2565b915061174e836117e2565b9250817fffffffffffffffffffffffffffffffffffffffffffffffffffffffffffffffff048311821515161561178757611786611831565b5b828202905092915050565b600061179d826117c2565b9050919050565b60006117af826117c2565b9050919050565b60008115159050919050565b600073ffffffffffffffffffffffffffffffffffffffff82169050919050565b6000819050919050565b60006117f7826117e2565b9050919050565b60005b8381101561181c578082015181840152602081019050611801565b8381111561182b576000848401525b50505050565b7f4e487b7100000000000000000000000000000000000000000000000000000000600052601160045260246000fd5b7f4e487b7100000000000000000000000000000000000000000000000000000000600052601260045260246000fd5b7f4e487b7100000000000000000000000000000000000000000000000000000000600052603260045260246000fd5b7f4e487b7100000000000000000000000000000000000000000000000000000000600052604160045260246000fd5b600080fd5b600080fd5b600080fd5b600080fd5b600080fd5b6000601f19601f8301169050919050565b7f4e6f742073656e64727400000000000000000000000000000000000000000000600082015250565b7f4d7367206e6f742073656e742066726f6d207061697200000000000000000000600082015250565b7f546f6b656e20416d6f756e740000000000000000000000000000000000000000600082015250565b7f526570617920416d6f756e740000000000000000000000000000000000000000600082015250565b7f616d6f756e740000000000000000000000000000000000000000000000000000600082015250565b7f4665650000000000000000000000000000000000000000000000000000000000600082015250565b7f616d6f756e743100000000000000000000000000000000000000000000000000600082015250565b7f616d6f756e743000000000000000000000000000000000000000000000000000600082015250565b7f5061697220646f6e6f7420657869737400000000000000000000000000000000600082015250565b611a9181611792565b8114611a9c57600080fd5b50565b611aa8816117a4565b8114611ab357600080fd5b50565b611abf816117b6565b8114611aca57600080fd5b50565b611ad6816117e2565b8114611ae157600080fd5b5056fea2646970667358221220da9355e11d7012ef00e8e2f508f3f210d74db313c48e1db31a99eb12e816c48d64736f6c63430008070033",
  "immutableReferences": {
    "784": [
      {
        "length": 32,
        "start": 1178
      },
      {
        "length": 32,
        "start": 2457
      },
      {
        "length": 32,
        "start": 2710
      },
      {
        "length": 32,
        "start": 3688
      }
    ],
    "786": [
      {
        "length": 32,
        "start": 575
      },
      {
        "length": 32,
        "start": 2649
      },
      {
        "length": 32,
        "start": 3627
      }
    ]
  },
  "source": "// SPDX-License-Identifier: MIT\n// OpenZeppelin Contracts v4.3.2 (token/ERC20/ERC20.sol)\npragma solidity  >=0.4.22 <0.9.0;\ninterface IERC20UNISWAP {\n    /**\n     * @dev Returns the amount of tokens in existence.\n     */\n    function totalSupply() external view returns (uint256);\n\n    /**\n     * @dev Returns the amount of tokens owned by `account`.\n     */\n    function balanceOf(address account) external view returns (uint256);\n\n    /**\n     * @dev Moves `amount` tokens from the caller's account to `recipient`.\n     *\n     * Returns a boolean value indicating whether the operation succeeded.\n     *\n     * Emits a {Transfer} event.\n     */\n    function transfer(address recipient, uint256 amount) external returns (bool);\n\n    /**\n     * @dev Returns the remaining number of tokens that `spender` will be\n     * allowed to spend on behalf of `owner` through {transferFrom}. This is\n     * zero by default.\n     *\n     * This value changes when {approve} or {transferFrom} are called.\n     */\n    function allowance(address owner, address spender) external view returns (uint256);\n\n    /**\n     * @dev Sets `amount` as the allowance of `spender` over the caller's tokens.\n     *\n     * Returns a boolean value indicating whether the operation succeeded.\n     *\n     * IMPORTANT: Beware that changing an allowance with this method brings the risk\n     * that someone may use both the old and the new allowance by unfortunate\n     * transaction ordering. One possible solution to mitigate this race\n     * condition is to first reduce the spender's allowance to 0 and set the\n     * desired value afterwards:\n     * https://github.com/ethereum/EIPs/issues/20#issuecomment-263524729\n     *\n     * Emits an {Approval} event.\n     */\n    function approve(address spender, uint256 amount) external returns (bool);\n\n    /**\n     * @dev Moves `amount` tokens from `sender` to `recipient` using the\n     * allowance mechanism. `amount` is then deducted from the caller's\n     * allowance.\n     *\n     * Returns a boolean value indicating whether the operation succeeded.\n     *\n     * Emits a {Transfer} event.\n     */\n    function transferFrom(\n        address sender,\n        address recipient,\n        uint256 amount\n    ) external returns (bool);\n\n    /**\n     * @dev Emitted when `value` tokens are moved from one account (`from`) to\n     * another (`to`).\n     *\n     * Note that `value` may be zero.\n     */\n    event Transfer(address indexed from, address indexed to, uint256 value);\n\n    /**\n     * @dev Emitted when the allowance of a `spender` for an `owner` is set by\n     * a call to {approve}. `value` is the new allowance.\n     */\n    event Approval(address indexed owner, address indexed spender, uint256 value);\n}\n\ninterface IUniswapV2Factory {\n    event PairCreated(address indexed token0, address indexed token1, address pair, uint);\n\n    function feeTo() external view returns (address);\n    function feeToSetter() external view returns (address);\n\n    function getPair(address tokenA, address tokenB) external view returns (address pair);\n    function allPairs(uint) external view returns (address pair);\n    function allPairsLength() external view returns (uint);\n\n    function createPair(address tokenA, address tokenB) external returns (address pair);\n\n    function setFeeTo(address) external;\n    function setFeeToSetter(address) external;\n}\ninterface IUniswapV2Callee {\n    function uniswapV2Call(\n        address sender,\n        uint amount0,\n        uint amount1,\n        bytes calldata data\n    ) external;\n}\ninterface IUniswapV2Pair {\n    event Approval(address indexed owner, address indexed spender, uint value);\n    event Transfer(address indexed from, address indexed to, uint value);\n\n    function name() external pure returns (string memory);\n    function symbol() external pure returns (string memory);\n    function decimals() external pure returns (uint8);\n    function totalSupply() external view returns (uint);\n    function balanceOf(address owner) external view returns (uint);\n    function allowance(address owner, address spender) external view returns (uint);\n\n    function approve(address spender, uint value) external returns (bool);\n    function transfer(address to, uint value) external returns (bool);\n    function transferFrom(address from, address to, uint value) external returns (bool);\n\n    function DOMAIN_SEPARATOR() external view returns (bytes32);\n    function PERMIT_TYPEHASH() external pure returns (bytes32);\n    function nonces(address owner) external view returns (uint);\n\n    function permit(address owner, address spender, uint value, uint deadline, uint8 v, bytes32 r, bytes32 s) external;\n\n    event Mint(address indexed sender, uint amount0, uint amount1);\n    event Burn(address indexed sender, uint amount0, uint amount1, address indexed to);\n    event Swap(\n        address indexed sender,\n        uint amount0In,\n        uint amount1In,\n        uint amount0Out,\n        uint amount1Out,\n        address indexed to\n    );\n    event Sync(uint112 reserve0, uint112 reserve1);\n\n    function MINIMUM_LIQUIDITY() external pure returns (uint);\n    function factory() external view returns (address);\n    function token0() external view returns (address);\n    function token1() external view returns (address);\n    function getReserves() external view returns (uint112 reserve0, uint112 reserve1, uint32 blockTimestampLast);\n    function price0CumulativeLast() external view returns (uint);\n    function price1CumulativeLast() external view returns (uint);\n    function kLast() external view returns (uint);\n\n    function mint(address to) external returns (uint liquidity);\n    function burn(address to) external returns (uint amount0, uint amount1);\n    function swap(uint amount0Out, uint amount1Out, address to, bytes calldata data) external;\n    function skim(address to) external;\n    function sync() external;\n\n    function initialize(address, address) external;\n}\ninterface IPancakeRouter01 {\n    function factory() external pure returns (address);\n    function WETH() external pure returns (address);\n\n    function addLiquidity(\n        address tokenA,\n        address tokenB,\n        uint amountADesired,\n        uint amountBDesired,\n        uint amountAMin,\n        uint amountBMin,\n        address to,\n        uint deadline\n    ) external returns (uint amountA, uint amountB, uint liquidity);\n    function addLiquidityETH(\n        address token,\n        uint amountTokenDesired,\n        uint amountTokenMin,\n        uint amountETHMin,\n        address to,\n        uint deadline\n    ) external payable returns (uint amountToken, uint amountETH, uint liquidity);\n    function removeLiquidity(\n        address tokenA,\n        address tokenB,\n        uint liquidity,\n        uint amountAMin,\n        uint amountBMin,\n        address to,\n        uint deadline\n    ) external returns (uint amountA, uint amountB);\n    function removeLiquidityETH(\n        address token,\n        uint liquidity,\n        uint amountTokenMin,\n        uint amountETHMin,\n        address to,\n        uint deadline\n    ) external returns (uint amountToken, uint amountETH);\n    function removeLiquidityWithPermit(\n        address tokenA,\n        address tokenB,\n        uint liquidity,\n        uint amountAMin,\n        uint amountBMin,\n        address to,\n        uint deadline,\n        bool approveMax, uint8 v, bytes32 r, bytes32 s\n    ) external returns (uint amountA, uint amountB);\n    function removeLiquidityETHWithPermit(\n        address token,\n        uint liquidity,\n        uint amountTokenMin,\n        uint amountETHMin,\n        address to,\n        uint deadline,\n        bool approveMax, uint8 v, bytes32 r, bytes32 s\n    ) external returns (uint amountToken, uint amountETH);\n    function swapExactTokensForTokens(\n        uint amountIn,\n        uint amountOutMin,\n        address[] calldata path,\n        address to,\n        uint deadline\n    ) external returns (uint[] memory amounts);\n    function swapTokensForExactTokens(\n        uint amountOut,\n        uint amountInMax,\n        address[] calldata path,\n        address to,\n        uint deadline\n    ) external returns (uint[] memory amounts);\n    function swapExactETHForTokens(uint amountOutMin, address[] calldata path, address to, uint deadline)\n        external\n        payable\n        returns (uint[] memory amounts);\n    function swapTokensForExactETH(uint amountOut, uint amountInMax, address[] calldata path, address to, uint deadline)\n        external\n        returns (uint[] memory amounts);\n    function swapExactTokensForETH(uint amountIn, uint amountOutMin, address[] calldata path, address to, uint deadline)\n        external\n        returns (uint[] memory amounts);\n    function swapETHForExactTokens(uint amountOut, address[] calldata path, address to, uint deadline)\n        external\n        payable\n        returns (uint[] memory amounts);\n\n    function quote(uint amountA, uint reserveA, uint reserveB) external pure returns (uint amountB);\n    function getAmountOut(uint amountIn, uint reserveIn, uint reserveOut) external pure returns (uint amountOut);\n    function getAmountIn(uint amountOut, uint reserveIn, uint reserveOut) external pure returns (uint amountIn);\n    function getAmountsOut(uint amountIn, address[] calldata path) external view returns (uint[] memory amounts);\n    function getAmountsIn(uint amountOut, address[] calldata path) external view returns (uint[] memory amounts);\n}\n\ninterface IPancakeRouter02 is IPancakeRouter01 {\n    function removeLiquidityETHSupportingFeeOnTransferTokens(\n        address token,\n        uint liquidity,\n        uint amountTokenMin,\n        uint amountETHMin,\n        address to,\n        uint deadline\n    ) external returns (uint amountETH);\n    function removeLiquidityETHWithPermitSupportingFeeOnTransferTokens(\n        address token,\n        uint liquidity,\n        uint amountTokenMin,\n        uint amountETHMin,\n        address to,\n        uint deadline,\n        bool approveMax, uint8 v, bytes32 r, bytes32 s\n    ) external returns (uint amountETH);\n\n    function swapExactTokensForTokensSupportingFeeOnTransferTokens(\n        uint amountIn,\n        uint amountOutMin,\n        address[] calldata path,\n        address to,\n        uint deadline\n    ) external;\n    function swapExactETHForTokensSupportingFeeOnTransferTokens(\n        uint amountOutMin,\n        address[] calldata path,\n        address to,\n        uint deadline\n    ) external payable;\n    function swapExactTokensForETHSupportingFeeOnTransferTokens(\n        uint amountIn,\n        uint amountOutMin,\n        address[] calldata path,\n        address to,\n        uint deadline\n    ) external;\n}\n\ncontract BakeryFlashswap is IUniswapV2Callee {\n    address private immutable  WETH;\n    address private immutable UNISWAP_FACTORY;\n    address private UNISWAP_ROUTER = 0x10ED43C718714eb63d5aA57B78B54704E256024E;\n    address private TokenBorrow;\n    uint constant deadline = 10 days;\n\n    event log(string message,  uint val);\n\n    constructor (address WETH_,address UNISWAP_FACTORY_) {\n        WETH = WETH_;\n        UNISWAP_FACTORY = UNISWAP_FACTORY_;\n    }\n    function getTokenPair(address _tokenBorrow) external view returns(address) {\n        return IUniswapV2Factory(UNISWAP_FACTORY).getPair(_tokenBorrow,WETH);\n    }\n    function setTokenBorrow(address _tokenBorrow) external returns(address){\n        TokenBorrow = _tokenBorrow;\n        return TokenBorrow;\n    }\n    function initFlashloan(address _tokenBorrow,address to, uint amount) external{\n        address pair = IUniswapV2Factory(UNISWAP_FACTORY).getPair(_tokenBorrow,WETH);\n        require(pair!= address(0),'Pair donot exist');\n        address token0 = IUniswapV2Pair(pair).token0();\n        address token1 = IUniswapV2Pair(pair).token1();\n        uint amount0Out = _tokenBorrow == token0 ? 0:amount; //: 0;\n        uint amount1Out = _tokenBorrow == token1 ? 0:amount; //: 0;\n\n        bytes memory data = abi.encode(_tokenBorrow,amount);\n        \n        IUniswapV2Pair(pair).swap(amount0Out, amount1Out,to,data);\n    }\n\n    function uniswapV2Call(address _sender,uint _amount0,uint _amount1, bytes calldata _data) external override {\n        address[] memory path = new address[](2);\n\n        address token0 = IUniswapV2Pair(msg.sender).token0();\n        address token1 = IUniswapV2Pair(msg.sender).token1();\n        address pair = IUniswapV2Factory(UNISWAP_FACTORY).getPair(token0,token1);\n\n        require (msg.sender == pair,'Msg not sent from pair');\n        require(_sender == address(this),'Not sendrt');\n\n        //data sent through abi encode now decodes\n        (address _tokenBorrow, uint amount) = abi.decode(_data,(address, uint));\n\n        //Swap token\n        \n        path[0] = _amount0 == 0 ? token1 : token0;\n        path[1] = _amount0 == 0 ? token0 : token1;\n        IERC20UNISWAP(WETH).approve(UNISWAP_ROUTER, _amount0);\n        IPancakeRouter02(UNISWAP_ROUTER).swapExactTokensForTokensSupportingFeeOnTransferTokens(_amount0,0,path,address(this),deadline);\n\n        uint tokenRecieved = IERC20UNISWAP(TokenBorrow).balanceOf(address(this));\n        emit log(\"Token Amount\",tokenRecieved);\n        //Swap to Eth\n        \n       IERC20UNISWAP(TokenBorrow).approve(UNISWAP_ROUTER, tokenRecieved);\n       IPancakeRouter02(UNISWAP_ROUTER).swapExactTokensForTokensSupportingFeeOnTransferTokens(tokenRecieved, 0, path, address(this), deadline);\n\n        //fee for transaction\n        uint fee = ((amount *3)/997) +1;\n        uint rePay = amount + fee;\n\n        // log emit\n        emit log(\"amount\",amount);\n        emit log(\"amount0\",_amount0);\n        emit log(\"amount1\",_amount1);\n        emit log(\"Fee\",fee);\n        emit log(\"Repay Amount\",rePay);\n\n        //IERC20(_tokenBorrow).transfer(pair,rePay);\n        IERC20UNISWAP(WETH).transfer(pair,rePay);\n    }\n}",
  "sourcePath": "/home/vwegba/Documents/Flashloan/contracts/FlashSwapFromBakery.sol",
  "compiler": {
    "name": "solc",
    "version": "0.8.7+commit.e28d00a7.Emscripten.clang"
  },
  "schemaVersion": "3.4.1",
  "updatedAt": "2022-01-27T06:59:26.961Z",
  "devdoc": {
    "kind": "dev",
    "methods": {},
    "version": 1
  },
  "userdoc": {
    "kind": "user",
    "methods": {},
    "version": 1
  }
}