{
  "contractName": "Flashswap",
  "abi": [
    {
      "inputs": [
        {
          "internalType": "address",
          "name": "WETH_",
          "type": "address"
        },
        {
          "internalType": "address",
          "name": "UNISWAP_FACTORY_",
          "type": "address"
        }
      ],
      "stateMutability": "nonpayable",
      "type": "constructor"
    },
    {
      "anonymous": false,
      "inputs": [
        {
          "indexed": false,
          "internalType": "string",
          "name": "message",
          "type": "string"
        },
        {
          "indexed": false,
          "internalType": "uint256",
          "name": "val",
          "type": "uint256"
        }
      ],
      "name": "log",
      "type": "event"
    },
    {
      "inputs": [
        {
          "internalType": "address",
          "name": "_tokenBorrow",
          "type": "address"
        }
      ],
      "name": "getTokenPair",
      "outputs": [
        {
          "internalType": "address",
          "name": "",
          "type": "address"
        }
      ],
      "stateMutability": "view",
      "type": "function"
    },
    {
      "inputs": [
        {
          "internalType": "address",
          "name": "_tokenBorrow",
          "type": "address"
        },
        {
          "internalType": "address",
          "name": "to",
          "type": "address"
        },
        {
          "internalType": "uint256",
          "name": "amount",
          "type": "uint256"
        }
      ],
      "name": "initFlashloan",
      "outputs": [],
      "stateMutability": "nonpayable",
      "type": "function"
    },
    {
      "inputs": [
        {
          "internalType": "address",
          "name": "_sender",
          "type": "address"
        },
        {
          "internalType": "uint256",
          "name": "_amount0",
          "type": "uint256"
        },
        {
          "internalType": "uint256",
          "name": "_amount1",
          "type": "uint256"
        },
        {
          "internalType": "bytes",
          "name": "_data",
          "type": "bytes"
        }
      ],
      "name": "uniswapV2Call",
      "outputs": [],
      "stateMutability": "nonpayable",
      "type": "function"
    }
  ],
  "bytecode": "0x60c06040523480156200001157600080fd5b50604051620014e0380380620014e08339818101604052810190620000379190620000c4565b8173ffffffffffffffffffffffffffffffffffffffff1660808173ffffffffffffffffffffffffffffffffffffffff1660601b815250508073ffffffffffffffffffffffffffffffffffffffff1660a08173ffffffffffffffffffffffffffffffffffffffff1660601b8152505050506200015e565b600081519050620000be8162000144565b92915050565b60008060408385031215620000de57620000dd6200013f565b5b6000620000ee85828601620000ad565b92505060206200010185828601620000ad565b9150509250929050565b600062000118826200011f565b9050919050565b600073ffffffffffffffffffffffffffffffffffffffff82169050919050565b600080fd5b6200014f816200010b565b81146200015b57600080fd5b50565b60805160601c60a05160601c6113416200019f600039600081816101b60152818161054001526108a501526000818161057d01526108e201526113416000f3fe608060405234801561001057600080fd5b50600436106100415760003560e01c806310d1e85c1461004657806326f39d2f14610062578063b1aecc8e1461007e575b600080fd5b610060600480360381019061005b9190610b21565b6100ae565b005b61007c60048036038101906100779190610ace565b61053c565b005b61009860048036038101906100939190610a34565b6108a1565b6040516100a59190610d45565b60405180910390f35b60003373ffffffffffffffffffffffffffffffffffffffff16630dfe16816040518163ffffffff1660e01b815260040160206040518083038186803b1580156100f657600080fd5b505afa15801561010a573d6000803e3d6000fd5b505050506040513d601f19601f8201168201806040525081019061012e9190610a61565b905060003373ffffffffffffffffffffffffffffffffffffffff1663d21220a76040518163ffffffff1660e01b815260040160206040518083038186803b15801561017857600080fd5b505afa15801561018c573d6000803e3d6000fd5b505050506040513d601f19601f820116820180604052508101906101b09190610a61565b905060007f000000000000000000000000000000000000000000000000000000000000000073ffffffffffffffffffffffffffffffffffffffff1663e6a4390584846040518363ffffffff1660e01b815260040161020f929190610d60565b60206040518083038186803b15801561022757600080fd5b505afa15801561023b573d6000803e3d6000fd5b505050506040513d601f19601f8201168201806040525081019061025f9190610a61565b90508073ffffffffffffffffffffffffffffffffffffffff163373ffffffffffffffffffffffffffffffffffffffff16146102cf576040517f08c379a00000000000000000000000000000000000000000000000000000000081526004016102c690610dd2565b60405180910390fd5b3073ffffffffffffffffffffffffffffffffffffffff168873ffffffffffffffffffffffffffffffffffffffff161461033d576040517f08c379a000000000000000000000000000000000000000000000000000000000815260040161033490610db2565b60405180910390fd5b600080868681019061034f9190610a8e565b91509150600060016103e56003846103679190610ff8565b6103719190610fc7565b61037b9190610f71565b90506000818361038b9190610f71565b90507fb60e72ccf6d57ab53eb84d7e94a9545806ed7f93c4d5673f11a64f03471e584e836040516103bc9190610e20565b60405180910390a17fb60e72ccf6d57ab53eb84d7e94a9545806ed7f93c4d5673f11a64f03471e584e8b6040516103f39190610eaa565b60405180910390a17fb60e72ccf6d57ab53eb84d7e94a9545806ed7f93c4d5673f11a64f03471e584e8a60405161042a9190610e7c565b60405180910390a17fb60e72ccf6d57ab53eb84d7e94a9545806ed7f93c4d5673f11a64f03471e584e826040516104619190610e4e565b60405180910390a17fb60e72ccf6d57ab53eb84d7e94a9545806ed7f93c4d5673f11a64f03471e584e816040516104989190610df2565b60405180910390a18373ffffffffffffffffffffffffffffffffffffffff1663a9059cbb86836040518363ffffffff1660e01b81526004016104db929190610d89565b602060405180830381600087803b1580156104f557600080fd5b505af1158015610509573d6000803e3d6000fd5b505050506040513d601f19601f8201168201806040525081019061052d9190610ba9565b50505050505050505050505050565b60007f000000000000000000000000000000000000000000000000000000000000000073ffffffffffffffffffffffffffffffffffffffff1663e6a43905857f00000000000000000000000000000000000000000000000000000000000000006040518363ffffffff1660e01b81526004016105b9929190610d60565b60206040518083038186803b1580156105d157600080fd5b505afa1580156105e5573d6000803e3d6000fd5b505050506040513d601f19601f820116820180604052508101906106099190610a61565b9050600073ffffffffffffffffffffffffffffffffffffffff168173ffffffffffffffffffffffffffffffffffffffff16141561067b576040517f08c379a000000000000000000000000000000000000000000000000000000000815260040161067290610ed8565b60405180910390fd5b60008173ffffffffffffffffffffffffffffffffffffffff16630dfe16816040518163ffffffff1660e01b815260040160206040518083038186803b1580156106c357600080fd5b505afa1580156106d7573d6000803e3d6000fd5b505050506040513d601f19601f820116820180604052508101906106fb9190610a61565b905060008273ffffffffffffffffffffffffffffffffffffffff1663d21220a76040518163ffffffff1660e01b815260040160206040518083038186803b15801561074557600080fd5b505afa158015610759573d6000803e3d6000fd5b505050506040513d601f19601f8201168201806040525081019061077d9190610a61565b905060008273ffffffffffffffffffffffffffffffffffffffff168773ffffffffffffffffffffffffffffffffffffffff16146107bb5760006107bd565b845b905060008273ffffffffffffffffffffffffffffffffffffffff168873ffffffffffffffffffffffffffffffffffffffff16146107fb5760006107fd565b855b905060008887604051602001610814929190610d89565b60405160208183030381529060405290508573ffffffffffffffffffffffffffffffffffffffff1663022c0d9f84848b856040518563ffffffff1660e01b81526004016108649493929190610ef8565b600060405180830381600087803b15801561087e57600080fd5b505af1158015610892573d6000803e3d6000fd5b50505050505050505050505050565b60007f000000000000000000000000000000000000000000000000000000000000000073ffffffffffffffffffffffffffffffffffffffff1663e6a43905837f00000000000000000000000000000000000000000000000000000000000000006040518363ffffffff1660e01b815260040161091e929190610d60565b60206040518083038186803b15801561093657600080fd5b505afa15801561094a573d6000803e3d6000fd5b505050506040513d601f19601f8201168201806040525081019061096e9190610a61565b9050919050565b600081359050610984816112af565b92915050565b600081519050610999816112af565b92915050565b6000813590506109ae816112c6565b92915050565b6000815190506109c3816112dd565b92915050565b60008083601f8401126109df576109de611142565b5b8235905067ffffffffffffffff8111156109fc576109fb61113d565b5b602083019150836001820283011115610a1857610a17611147565b5b9250929050565b600081359050610a2e816112f4565b92915050565b600060208284031215610a4a57610a49611151565b5b6000610a5884828501610975565b91505092915050565b600060208284031215610a7757610a76611151565b5b6000610a858482850161098a565b91505092915050565b60008060408385031215610aa557610aa4611151565b5b6000610ab38582860161099f565b9250506020610ac485828601610a1f565b9150509250929050565b600080600060608486031215610ae757610ae6611151565b5b6000610af586828701610975565b9350506020610b0686828701610975565b9250506040610b1786828701610a1f565b9150509250925092565b600080600080600060808688031215610b3d57610b3c611151565b5b6000610b4b88828901610975565b9550506020610b5c88828901610a1f565b9450506040610b6d88828901610a1f565b935050606086013567ffffffffffffffff811115610b8e57610b8d61114c565b5b610b9a888289016109c9565b92509250509295509295909350565b600060208284031215610bbf57610bbe611151565b5b6000610bcd848285016109b4565b91505092915050565b610bdf81611052565b82525050565b6000610bf082610f44565b610bfa8185610f4f565b9350610c0a8185602086016110ac565b610c1381611156565b840191505092915050565b6000610c2b600a83610f60565b9150610c3682611167565b602082019050919050565b6000610c4e601683610f60565b9150610c5982611190565b602082019050919050565b6000610c71600c83610f60565b9150610c7c826111b9565b602082019050919050565b6000610c94600683610f60565b9150610c9f826111e2565b602082019050919050565b6000610cb7600383610f60565b9150610cc28261120b565b602082019050919050565b6000610cda600783610f60565b9150610ce582611234565b602082019050919050565b6000610cfd600783610f60565b9150610d088261125d565b602082019050919050565b6000610d20601083610f60565b9150610d2b82611286565b602082019050919050565b610d3f816110a2565b82525050565b6000602082019050610d5a6000830184610bd6565b92915050565b6000604082019050610d756000830185610bd6565b610d826020830184610bd6565b9392505050565b6000604082019050610d9e6000830185610bd6565b610dab6020830184610d36565b9392505050565b60006020820190508181036000830152610dcb81610c1e565b9050919050565b60006020820190508181036000830152610deb81610c41565b9050919050565b60006040820190508181036000830152610e0b81610c64565b9050610e1a6020830184610d36565b92915050565b60006040820190508181036000830152610e3981610c87565b9050610e486020830184610d36565b92915050565b60006040820190508181036000830152610e6781610caa565b9050610e766020830184610d36565b92915050565b60006040820190508181036000830152610e9581610ccd565b9050610ea46020830184610d36565b92915050565b60006040820190508181036000830152610ec381610cf0565b9050610ed26020830184610d36565b92915050565b60006020820190508181036000830152610ef181610d13565b9050919050565b6000608082019050610f0d6000830187610d36565b610f1a6020830186610d36565b610f276040830185610bd6565b8181036060830152610f398184610be5565b905095945050505050565b600081519050919050565b600082825260208201905092915050565b600082825260208201905092915050565b6000610f7c826110a2565b9150610f87836110a2565b9250827fffffffffffffffffffffffffffffffffffffffffffffffffffffffffffffffff03821115610fbc57610fbb6110df565b5b828201905092915050565b6000610fd2826110a2565b9150610fdd836110a2565b925082610fed57610fec61110e565b5b828204905092915050565b6000611003826110a2565b915061100e836110a2565b9250817fffffffffffffffffffffffffffffffffffffffffffffffffffffffffffffffff0483118215151615611047576110466110df565b5b828202905092915050565b600061105d82611082565b9050919050565b600061106f82611082565b9050919050565b60008115159050919050565b600073ffffffffffffffffffffffffffffffffffffffff82169050919050565b6000819050919050565b60005b838110156110ca5780820151818401526020810190506110af565b838111156110d9576000848401525b50505050565b7f4e487b7100000000000000000000000000000000000000000000000000000000600052601160045260246000fd5b7f4e487b7100000000000000000000000000000000000000000000000000000000600052601260045260246000fd5b600080fd5b600080fd5b600080fd5b600080fd5b600080fd5b6000601f19601f8301169050919050565b7f4e6f742073656e64727400000000000000000000000000000000000000000000600082015250565b7f4d7367206e6f742073656e742066726f6d207061697200000000000000000000600082015250565b7f526570617920416d6f756e740000000000000000000000000000000000000000600082015250565b7f616d6f756e740000000000000000000000000000000000000000000000000000600082015250565b7f4665650000000000000000000000000000000000000000000000000000000000600082015250565b7f616d6f756e743100000000000000000000000000000000000000000000000000600082015250565b7f616d6f756e743000000000000000000000000000000000000000000000000000600082015250565b7f5061697220646f6e6f7420657869737400000000000000000000000000000000600082015250565b6112b881611052565b81146112c357600080fd5b50565b6112cf81611064565b81146112da57600080fd5b50565b6112e681611076565b81146112f157600080fd5b50565b6112fd816110a2565b811461130857600080fd5b5056fea264697066735822122098070bc969e3b775c940e232614a7a2b6ff6bc45e97c984fd767b12595a4dc2664736f6c63430008070033",
  "immutableReferences": {
    "394": [
      {
        "length": 32,
        "start": 1405
      },
      {
        "length": 32,
        "start": 2274
      }
    ],
    "396": [
      {
        "length": 32,
        "start": 438
      },
      {
        "length": 32,
        "start": 1344
      },
      {
        "length": 32,
        "start": 2213
      }
    ]
  },
  "source": "\n// SPDX-License-Identifier: MIT\n// OpenZeppelin Contracts v4.3.2 (token/ERC20/ERC20.sol)\n\npragma solidity ^0.8.0;\n\n/**\n * @dev Interface of the ERC20 standard as defined in the EIP.\n */\ninterface IERC20 {\n    /**\n     * @dev Returns the amount of tokens in existence.\n     */\n    function totalSupply() external view returns (uint256);\n\n    /**\n     * @dev Returns the amount of tokens owned by `account`.\n     */\n    function balanceOf(address account) external view returns (uint256);\n\n    /**\n     * @dev Moves `amount` tokens from the caller's account to `recipient`.\n     *\n     * Returns a boolean value indicating whether the operation succeeded.\n     *\n     * Emits a {Transfer} event.\n     */\n    function transfer(address recipient, uint256 amount) external returns (bool);\n\n    /**\n     * @dev Returns the remaining number of tokens that `spender` will be\n     * allowed to spend on behalf of `owner` through {transferFrom}. This is\n     * zero by default.\n     *\n     * This value changes when {approve} or {transferFrom} are called.\n     */\n    function allowance(address owner, address spender) external view returns (uint256);\n\n    /**\n     * @dev Sets `amount` as the allowance of `spender` over the caller's tokens.\n     *\n     * Returns a boolean value indicating whether the operation succeeded.\n     *\n     * IMPORTANT: Beware that changing an allowance with this method brings the risk\n     * that someone may use both the old and the new allowance by unfortunate\n     * transaction ordering. One possible solution to mitigate this race\n     * condition is to first reduce the spender's allowance to 0 and set the\n     * desired value afterwards:\n     * https://github.com/ethereum/EIPs/issues/20#issuecomment-263524729\n     *\n     * Emits an {Approval} event.\n     */\n    function approve(address spender, uint256 amount) external returns (bool);\n\n    /**\n     * @dev Moves `amount` tokens from `sender` to `recipient` using the\n     * allowance mechanism. `amount` is then deducted from the caller's\n     * allowance.\n     *\n     * Returns a boolean value indicating whether the operation succeeded.\n     *\n     * Emits a {Transfer} event.\n     */\n    function transferFrom(\n        address sender,\n        address recipient,\n        uint256 amount\n    ) external returns (bool);\n\n    /**\n     * @dev Emitted when `value` tokens are moved from one account (`from`) to\n     * another (`to`).\n     *\n     * Note that `value` may be zero.\n     */\n    event Transfer(address indexed from, address indexed to, uint256 value);\n\n    /**\n     * @dev Emitted when the allowance of a `spender` for an `owner` is set by\n     * a call to {approve}. `value` is the new allowance.\n     */\n    event Approval(address indexed owner, address indexed spender, uint256 value);\n}\n\ninterface IUniswapV2Factory {\n    event PairCreated(address indexed token0, address indexed token1, address pair, uint);\n\n    function feeTo() external view returns (address);\n    function feeToSetter() external view returns (address);\n\n    function getPair(address tokenA, address tokenB) external view returns (address pair);\n    function allPairs(uint) external view returns (address pair);\n    function allPairsLength() external view returns (uint);\n\n    function createPair(address tokenA, address tokenB) external returns (address pair);\n\n    function setFeeTo(address) external;\n    function setFeeToSetter(address) external;\n}\ninterface IUniswapV2Callee {\n    function uniswapV2Call(\n        address sender,\n        uint amount0,\n        uint amount1,\n        bytes calldata data\n    ) external;\n}\ninterface IUniswapV2Pair {\n    event Approval(address indexed owner, address indexed spender, uint value);\n    event Transfer(address indexed from, address indexed to, uint value);\n\n    function name() external pure returns (string memory);\n    function symbol() external pure returns (string memory);\n    function decimals() external pure returns (uint8);\n    function totalSupply() external view returns (uint);\n    function balanceOf(address owner) external view returns (uint);\n    function allowance(address owner, address spender) external view returns (uint);\n\n    function approve(address spender, uint value) external returns (bool);\n    function transfer(address to, uint value) external returns (bool);\n    function transferFrom(address from, address to, uint value) external returns (bool);\n\n    function DOMAIN_SEPARATOR() external view returns (bytes32);\n    function PERMIT_TYPEHASH() external pure returns (bytes32);\n    function nonces(address owner) external view returns (uint);\n\n    function permit(address owner, address spender, uint value, uint deadline, uint8 v, bytes32 r, bytes32 s) external;\n\n    event Mint(address indexed sender, uint amount0, uint amount1);\n    event Burn(address indexed sender, uint amount0, uint amount1, address indexed to);\n    event Swap(\n        address indexed sender,\n        uint amount0In,\n        uint amount1In,\n        uint amount0Out,\n        uint amount1Out,\n        address indexed to\n    );\n    event Sync(uint112 reserve0, uint112 reserve1);\n\n    function MINIMUM_LIQUIDITY() external pure returns (uint);\n    function factory() external view returns (address);\n    function token0() external view returns (address);\n    function token1() external view returns (address);\n    function getReserves() external view returns (uint112 reserve0, uint112 reserve1, uint32 blockTimestampLast);\n    function price0CumulativeLast() external view returns (uint);\n    function price1CumulativeLast() external view returns (uint);\n    function kLast() external view returns (uint);\n\n    function mint(address to) external returns (uint liquidity);\n    function burn(address to) external returns (uint amount0, uint amount1);\n    function swap(uint amount0Out, uint amount1Out, address to, bytes calldata data) external;\n    function skim(address to) external;\n    function sync() external;\n\n    function initialize(address, address) external;\n}\ncontract Flashswap is IUniswapV2Callee {\n    address private immutable  WETH;\n    address private immutable UNISWAP_FACTORY;\n\n    event log(string message,  uint val);\n\n    constructor (address WETH_,address UNISWAP_FACTORY_) {\n        WETH = WETH_;\n        UNISWAP_FACTORY = UNISWAP_FACTORY_;\n    }\n    function getTokenPair(address _tokenBorrow) external view returns(address) {\n        return IUniswapV2Factory(UNISWAP_FACTORY).getPair(_tokenBorrow,WETH);\n    }\n    function initFlashloan(address _tokenBorrow,address to, uint amount) external{\n        address pair = IUniswapV2Factory(UNISWAP_FACTORY).getPair(_tokenBorrow,WETH);\n        require(pair!= address(0),'Pair donot exist');\n        address token0 = IUniswapV2Pair(pair).token0();\n        address token1 = IUniswapV2Pair(pair).token1();\n        uint amount0Out = _tokenBorrow == token0 ? amount : 0;\n        uint amount1Out = _tokenBorrow == token1 ? amount : 0;\n\n        bytes memory data = abi.encode(_tokenBorrow,amount);\n\n        IUniswapV2Pair(pair).swap(amount0Out, amount1Out,to,data);\n    }\n\n    function uniswapV2Call(address _sender,uint _amount0,uint _amount1, bytes calldata _data) external override {\n        address token0 = IUniswapV2Pair(msg.sender).token0();\n        address token1 = IUniswapV2Pair(msg.sender).token1();\n        address pair = IUniswapV2Factory(UNISWAP_FACTORY).getPair(token0,token1);\n\n        require (msg.sender == pair,'Msg not sent from pair');\n        require(_sender == address(this),'Not sendrt');\n\n        //data sent through abi encode now decodes\n        (address _tokenBorrow, uint amount) = abi.decode(_data,(address, uint));\n\n        //fee for transaction\n        uint fee = ((amount *3)/997) +1;\n        uint rePay = amount + fee;\n\n        // log emit\n        emit log(\"amount\",amount);\n        emit log(\"amount0\",_amount0);\n        emit log(\"amount1\",_amount1);\n        emit log(\"Fee\",fee);\n        emit log(\"Repay Amount\",rePay);\n\n        IERC20(_tokenBorrow).transfer(pair,rePay);\n    }\n}\n",
  "sourcePath": "/home/vwegba/Documents/Flashloan/contracts/Flashswap.sol",
  "compiler": {
    "name": "solc",
    "version": "0.8.7+commit.e28d00a7.Emscripten.clang"
  },
  "schemaVersion": "3.4.1",
  "updatedAt": "2021-12-23T05:50:54.192Z",
  "devdoc": {
    "kind": "dev",
    "methods": {},
    "version": 1
  },
  "userdoc": {
    "kind": "user",
    "methods": {},
    "version": 1
  }
}